:100000000C949E070C94E5070C94E5070C94FF24D0
:100010000C94E5070C94E5070C94E5070C94E507B0
:100020000C94E5070C94E5070C94E82C0C94BC2D7B
:100030000C94B2270C94E5070C94E5070C94E507A3
:100040000C94E5070C94E5070C94E5070C94E50780
:100050000C94E5070C9425280C94E5070C94E5070F
:100060000C94E5070C94E5070C94E5070C94E50760
:100070000C94E5070C94E5070C94E5070C94E50750
:100080000C94E5070C94E5070C94E5070C94E50740
:100090000C94E5070C94E5070C94E5070C94E50730
:1000A0000C94E5070C94E5070C94E507007FFFFF2F
:1000B000FFFFFFFFFFFFFFFFFFFFFFFFFFFFFFFF50
:1000C000FFFFFFFFFFFFFFFFFFFFFFFFFFFFFFFF40
:1000D000FFFFFFFFFFFFFFFFFFFFFFFFFFFFFFFF30
:1000E000FFFFFFFFFFFFFFFFFFFFFFFFFFFFFFFF20
:1000F000FFFFFFFFFFFFFF7F7FFFBF3F7FFFFFFF90
:10010000FFFFFFFFFFFFFFFFFFCFC7EFEFCF0707A7
:10011000070303030306663E3410010101030307CE
:100120000F3F7FFFFFFFFFFFFFFFFFFF000000000B
:1001300001010303070F1F1F1F3F9FBF0F01000196
:1001400001071F1F1F3F7FFFFFFFFFFFFFFFFFFF95
:10015000FFFFFFFFFFFFFFFFFFFFFFFFFFFF7F7FAF
:100160007F3F3F3F3FBFFF7F7FFFFFFFFF7F7F7FDF
:10017000FFFFFFFFFFFFDFD8808081C0C0C0C7FF47
:10018000FFFFFFFFFFFFFFFFFFFFFFFFFFFFFEE19E
:100190000000000000000000000004060202000051
:1001A0000000000003070F3F7F7FFFFF00000000FB
:1001B00000008080C0C0C0C0E0FEFFFF3F0C000018
:1001C000000000000000000001071FFFFFFFFFFF0D
:1001D000FFFF07030D0D3F1F07070101000000008F
:1001E00000071F3E7E6107070B00010103000000AE
:1001F00000000000000101010101010101000001F6
:100200000303070F1FDF1F1F1F0F07070323636071
:1002100000000000000000000000000000000000DE
:1002200000000000000000000000081F00000000A7
:100230000207070707070FFFFFFFFFF1F0E0E0E00D
:10024000E0F0F0F8F8FCFCFEFEFEFFFFFFFFFFFF12
:10025000FFFF800000000000000000000000000020
:10026000000000000000000000000000000000008E
:1002700000000000040C3C7EF800000000000000BC
:10028000000000000000000000000000000000006E
:10029000000000000000000000000000000000005E
:1002A00000000000000000000000000C0000000042
:1002B00000000000000000000000E01C0205022415
:1002C000040402A91EE0000000000000000000007D
:1002D0000000E0100868100804030000000000009F
:1002E000000206827C030000000000000000000005
:1002F00000000102040C1010202020283E1C2020A9
:100300003E0F111F00000000000000000000000070
:1003100000000000000000000000E01C02050224B4
:10032000040402A91EE0000000000000000000001C
:1003300000E09008186010080403000000000000AE
:1003400000020E827C03000000000000000000009C
:1003500000000102040C1010202020283E1C202048
:100360003E0F111F00000000000000000000000010
:100370000080402010909090A0C080808070081471
:100380000890101008A47880000000000000000011
:10039000000708FC010000000080000001000000D0
:1003A0000000000818EA100F000000000000000024
:1003B000000000031C20203C0F111F030618202002
:1003C0003C0C121E010000000000000000000000B4
:1003D00000008040202020408000000000E0102825
:1003E000102020201048F000000000000000000055
:1003F000001F20F8020101010101010103000000BA
:100400000001001030D5201F000000000000000097
:100410000000003F20300C020509121E021C1408C7
:1004200010202C320100000000000000000000003D
:10043000E0100808C8B08080808080808040403C08
:1004400014040890180408B0408000000000000068
:100450000102C4A4FC0000000080000000000000B5
:1004600000000080C858282A100F0000000000007B
:10047000000E09040404040203020101020204083C
:1004800010262B320405060000000000000000E0EA
:100490001010F0000000000000000080808078282C
:1004A00008102030081020408000000000000003E9
:1004B00004081011F9010101010101000000000010
:1004C0000000000110B05055201F00000000000087
:1004D000000000000001020C10202837021E20201E
:1004E000180C141E010000000000000000C02010C5
:1004F000D030000000000000008080403C14040860
:1005000090180408B04080000000000000030408B8
:100510001011F901010101010100000000000000BB
:1005200080C848282A100F000000000000000000CA
:1005300000000001020C10202837020204081026D7
:100540002B320405060000000000000000E010103F
:10055000F00000000000000000808040402C1404E7
:100560000890180408B04080000000000003040850
:100570001011F9010101010101000000000000005B
:100580000080C048282A100F204A091000000000EF
:1005900000000001020C1020283702020408102677
:1005A0002B320405060000000000000000000000DF
:1005B0000000804040404080000000000000C0403B
:1005C000408000804080000000000000000000002B
:1005D0001E21F004020202020302020404040301C9
:1005E000000009018080AB04F8000000000000005A
:1005F0000000031C20203C0F111F02061820203889
:1006000008101804040202010000000000000000AD
:100610000000804040408000000000000000E0A09A
:10062000204080C02040800000000000000000004A
:100630003E41F0040202020302020204040201002D
:1006400000000400404055827C00000000000000D3
:1006500000003F20300C020509121E04181008107B
:1006600020283406020101000000000029001E00BD
:100670001F002000210022002B0014001A00080097
:1006800015001700E10004001600070009000A0029
:10069000E0001D001B0006001900050000003900E5
:1006A000E20001512C002F002A002700260025001F
:1006B000240023002D00130012000C0018001C0061
:1006C000340033000F000E000D000B0064003800F2
:1006D000370036001000110000002E00E700025124
:1006E000280030003A003B003C003D003E003F0047
:1006F00001004E0052004B000100010001005000BB
:1007000051004F0001000100010001000100010043
:1007100001000100000001000100010001000100D2
:100720004500440043004200410040000100010038
:1007300001000100010001000100010001000100B1
:1007400001000100010001000100010001000100A1
:100750000000010001000100010001000100010092
:100760000100010001000100010001000100010081
:100770000100010001000100010001000100010071
:100780000100010001000100010001000000010062
:100790000100010001000100010001000100010051
:1007A000830001004C000100610060005F00010057
:1007B000010001005E005D005C000100010001001D
:1007C0005B005A0059000100000035006200010082
:1007D0000100010000000000000000000000000017
:1007E0000000000000000000000000000000000009
:1007F00000000000000000000000000000000000F9
:1008000000000000000001000100010001000000E4
:1008100000000000000000000000000000000000D8
:1008200000000000000000000000000000000000C8
:1008300000000000000000000000000000000000B8
:1008400000000100010001000100000000000000A4
:10085000000000002A2B280000000000000000001B
:100860000000000000000029000000002C1E3420C1
:10087000212224342627252E362D3738271E1F20E7
:100880002122232425263333362E37381F0405062C
:100890000708090A0B0C0D0E0F1011121314151670
:1008A0001718191A1B1C1D2F3130232D350405066E
:1008B0000708090A0B0C0D0E0F1011121314151650
:1008C0001718191A1B1C1D2F3130354C0000000061
:1008D0000000000000000000000000000000000018
:1008E0000000000000000000000000000000000008
:1008F0007E0F00D4FFFFFFC70000007800AE00AFFE
:1009000000DA0281FFD9F1DB20A4A62EAF00A0C03F
:1009100000A1C800AED580A81FD300408D142000D0
:100920000000000000003E5B4F5B3E003E6B4F6BE3
:100930003E001C3E7C3E1C00183C7E3C18001C57B0
:100940007D571C001C5E7F5E1C0000183C180000D8
:10095000FFE7C3E7FF00001824180000FFE7DBE70C
:10096000FF0030483A060E00262979292600407FEC
:1009700005050700407F05253F005A3CE73C5A002B
:100980007F3E1C1C0800081C1C3E7F0014227F2296
:1009900014005F5F005F5F0006097F017F00006653
:1009A00089956A0060606060600094A2FFA2940074
:1009B00008047E04080010207E20100008082A1C6D
:1009C0000800081C2A0808001E10101010000C1E39
:1009D0000C1E0C0030383E383000060E3E0E06006D
:1009E00000000000000000005F000000000700079A
:1009F0000000147F147F1400242A7F2A120023137E
:100A000008646200364956205000000807030000C1
:100A1000001C224100000041221C00002A1C7F1CF7
:100A20002A0008083E08080000807030000008080E
:100A300008080800000060600000201008040200A0
:100A40003E5149453E0000427F40000072494949FD
:100A500046002141494D33001814127F10002745EC
:100A6000454539003C4A49493100412111090700F7
:100A7000364949493600464949291E0000001400FC
:100A8000000000403400000000081422410014144B
:100A90001414140000412214080002015909060030
:100AA0003E415D594E007C1211127C007F4949493C
:100AB00036003E41414122007F4141413E007F4995
:100AC000494941007F09090901003E414151730034
:100AD0007F0808087F0000417F4100002040413F1F
:100AE00001007F08142241007F40404040007F0207
:100AF0001C027F007F0408107F003E4141413E0000
:100B00007F09090906003E4151215E007F0919292C
:100B1000460026494949320003017F0103003F4056
:100B200040403F001F2040201F003F4038403F0012
:100B30006314081463000304780403006159494DE9
:100B40004300007F414141000204081020000041A1
:100B500041417F0004020102040040404040400047
:100B60000003070800002054547840007F284444C4
:100B70003800384444442800384444287F0038541E
:100B80005454180000087E0902001824241C780020
:100B90007F080404780000447D4000002040403D70
:100BA00000007F102844000000417F4000007C04CA
:100BB000780478007C080404780038444444380001
:100BC0007C1824241800182424187C007C080404B1
:100BD000080048545454240004043F4424003C407A
:100BE00040207C001C2040201C003C4030403C0049
:100BF0004428102844004C9090907C004464544C4D
:100C00004400000836410000000077000000004169
:100C1000360800000201020402003C2623263C00A4
:100C2000000000000080808080000000000080E064
:100C300070180C1830E080000010F89010307830F8
:100C400010B8FC3810000000000000F8FCF80000AC
:100C500000000000000000000000001C9C1C0000C0
:100C60000000F8FCF80000000000001CFCF8C000C8
:100C7000000000000080E0F87C1C000000F0FCFC9C
:100C8000FC1C1C1C1C1C1C1C1C000000000000C0C8
:100C9000F0F8381C1C1C1C1C1C3CF8F0E000E0F0B8
:100CA000F0F0E0ECEEF7F37020007C7C7C7E007EC0
:100CB0007E7E7F7F7F000080C0E07E5B4F5BFEC05A
:100CC0000000C000DCD7DEDEDED7DC00C0000000A4
:100CD0000000000000000000000000000000000014
:100CE00000000000000FBCE0818181838382870CBB
:100CF000183060C000001FFE90B9FFBB91983C18EF
:100D000011133F1100000000000000FFFFFF000072
:100D10000000000000000000000000FFFFFF0000D6
:100D20000000FFFFFF0000000000000000030F7F35
:100D3000F8E080F0FC3F0F0100000000003F3F3F63
:100D40001C1C1C1C1C3C78F8F0E08000000000C358
:100D5000E7FF7E3C3878787070F8FFDF87000F1F60
:100D60003F7F7F7F7F7F3F1E0C001F1F1F3F003F85
:100D70003F3F7F7F7F00307B7F7830202030787F3F
:100D80003B0003000F7F0F0F0F7F0F0003000000D9
:100D90000000000000000000000000000000000053
:100DA000183C24666341C18180808080808081C13D
:100DB0004162386C4CC68181808080808081C143D3
:100DC00062361C1800000000000000FFFFFFC0C0DA
:100DD000C0C0C0C0C0C0C0800000007FFF7F000056
:100DE00000007FFFFFC080000000E0E0C0C0C0E066
:100DF000F97F1F0700000000000000000070F0E015
:100E0000E0C0C0C0C0E0F0F87F3F0F0000000F3F1F
:100E10007FF9E0E0C0C0C0C0C0E0F97F3F1F000024
:100E200000000000000000000000000000000000C2
:100E300000000000000000000000000000000000B2
:100E400000000000000000000000000000000000A2
:100E50000000000000000000000000000000000092
:100E60000E034C0069006C0079003500380000006A
:100E700010036C0069006C00690075006D00730060
:100E800000000403090409024200020100A0FA095B
:100E900004000001030101000921110100012240A9
:100EA000000705810308000A09040100020300008D
:100EB0000009211101000122220007058203200000
:100EC00001070503032000011201000200000008D1
:100ED000D8042DEB0001010200010660FF0961A1A9
:100EE000010962150026FF0095207508810209633B
:100EF000150026FF00952075089102C0050109061E
:100F0000A101050719E029E71500250195087501DC
:100F100081029501750881010507190029FF150057
:100F200026FF009506750881000508190129059519
:100F30000575019102950175039101C011241FBE31
:100F4000CFEFDAE0DEBFCDBF04B603FE27C080914D
:100F5000DA049091DB04A091DC04B091DD048730C9
:100F6000904BA740B04BD1F41092DA041092DB04FE
:100F70001092DC041092DD0414BE84B7877F84BF16
:100F80000FB6F894A8958091600088618093600006
:100F9000109260000FBEE0E0F8E3099511E0A0E0D8
:100FA000B1E0EEEEF4E602C005900D92A83BB10769
:100FB000D9F724E0A8EBB1E001C01D92AA3DB20729
:100FC000E1F70E943E1A0C943E320C940000CF933D
:100FD000C82F0E9412188111C3E08C2FCF91089561
:100FE0001F93CF93DF9300D000D0CDB7DEB70E9420
:100FF000491A90E09093BD018093BC010E94912614
:101000008093A3020E941218882309F40DC16091F5
:10101000C3017091C4018091C5019091C6010E94E5
:101020000928693C71058105910508F43EC00E94BC
:10103000EE276093C3017093C4018093C501909320
:10104000C6018091BA01811104C080910001811113
:1010500083C06BE080E00E948E1E60E083E991E037
:101060000E94711F68E080E00E948E1E81E08093E4
:1010700000018091BE0190E00196817099278093D4
:10108000BE0121E030E0281B390B40E6429FC00141
:10109000439F900D11242091A30221FF6BC060E6B5
:1010A00070E084519B4F0E948D1F8091BC019091F4
:1010B000BD01181619060CF07BC00E94CD1F0E94BE
:1010C000EE276093BF017093C0018093C10190939C
:1010D000C2010E94491A182F66E081E00E948E1E0C
:1010E0001C822AE0812F622F0E946F31905D9B83CA
:1010F0000E946F31905D9A83812F64E60E946F3168
:10110000805D898360E0CE0101960E94711F65E0D9
:1011100080E00E948E1E60E089E991E00E94711FCC
:101120008091BC019091BD01181619060CF060C0A9
:101130000E94CD1F0E94EE276093BF017093C001F3
:101140008093C1019093C2010F900F900F900F9068
:10115000DF91CF911F91089568E080E00E948E1E7C
:1011600060E083E991E00E94711F69E080E00E94E5
:101170008E1E7FCF2091BB01222329F060E670E014
:1011800084559A4F90CF2091BC013091BD0160E60B
:1011900070E02B3031051CF484559D4F84CF2932EB
:1011A00031051CF484599C4F7ECF845D9B4F7BCFCF
:1011B0006091BF017091C0018091C1019091C20105
:1011C0000E94092861367A4E8105910508F481CF85
:1011D00060E080E00E948E1E60E084E391E00E9467
:1011E000711F0E94E92069E080E00E948E1E71CF8D
:1011F0006091BF017091C0018091C1019091C201C5
:101200000E94092861367A4E8105910508F49CCF29
:1012100060E080E00E948E1E60E084E391E00E9426
:10122000711F0E94E92090CF60E072E08CEA90E0AC
:101230000E948D1F89CF803E910579F0843E9105F3
:1012400061F08C9789F4FB018281882391F081E021
:101250008093BA011092000107C0FB0182818823AC
:1012600029F081E08093BB0181E008951092BB01D9
:10127000FBCF1092BA01F8CF81E008950C941B09BE
:1012800008950C9440091F93CF93DF9300D000D0B2
:101290000F92CDB7DEB749835A836B833091C70174
:1012A00089819A8131111DC06623B9F02223A9F0EA
:1012B0000E94D80E182F682F89819A810E94810E72
:1012C00069817A81812F0F900F900F900F900F906E
:1012D000DF91CF911F910C94201D0E94AF0E182F0B
:1012E000EFCF0E94D80E69817A81EDCFFC01262FC5
:1012F000408151816281738184810C94430981E032
:101300000895CF93DF93EC0160E00E947609BE015F
:10131000DF91CF910C944109E1E0F0E0DF0102C0E0
:10132000AA0FBB1F6A95E2F7BD01DF0102C0AA0F39
:10133000BB1F4A95E2F76A2B01C0EE0F2A95EAF728
:10134000962F9823961302C08E2B0895E0958E2336
:101350000895242F462F682F8091E0010E948C0968
:101360000C943E0E0E9436160E94040B0C945116EB
:101370000E94CF1A0C94541608950E94D60D0E9414
:10138000BC092FEF84E39CE0215080409040E1F7BE
:1013900000C000000C9449280F931F93CF93DF9354
:1013A0008C0161E00E947609EC01F80182818823BA
:1013B00019F0CE010E94751AB801CE010E94681B77
:1013C0008823D9F1B801CE010E943E098823A9F1F2
:1013D000B801CE010E94AA21882379F1B801CE017B
:1013E0000E94FC21882349F1B801CE010E942623E6
:1013F000882319F1F8018281882361F0CA35FDE55F
:10140000DF0721F170F4C115ECE5DE07A1F0CE3D58
:10141000DC45C9F0C801DF91CF911F910F910C9469
:101420003C09CB358DE5D807A1F0CC35DD4591F7EA
:101430000E941612EFCF0E94BD0980E0DF91CF918C
:101440001F910F9108950E947F13F7CF0E941F12E2
:10145000E1CF0E942212DECFDF92EF92FF920F9334
:101460001F93CF93DF93E82FF0E0E45BF74FD49026
:10147000282F26952695269530E0F901E451F74F5F
:101480000491877010E0082E02C0159507950A9404
:10149000E2F701701127F901E452F74FE490F12CC3
:1014A000082E02C0F594E7940A94E2F791E0E9224D
:1014B000FF24F901E453F74FC491D0E002C0D59561
:1014C000C7958A95E2F7C170DD270115110519F05E
:1014D00081EE0E94500BE114F10419F086EE0E9497
:1014E000500B8D2D0E94BA0BEF2819F086EE0E944A
:1014F0007B0B012B19F081EE0E947B0BCD2B51F061
:101500008CE2DF91CF911F910F91FF90EF90DF90D0
:101510000C94BA0BDF91CF911F910F91FF90EF9038
:10152000DF900895EF92FF920F931F93CF93DF9375
:10153000EC01162F0AE08881882309F454C0813019
:1015400009F04EC08981813099F47E0122E0E20EDB
:10155000F11C8A810E94BA0BE7012196812F8150EC
:1015600050F3EFE9FFE03197F1F700C00000F7CF4B
:10157000823041F47E0182E0E80EF11C8A810E94F3
:10158000500BEACF833041F47E01E2E0EE0EF11C15
:101590008A810E947B0BE0CF843011F02196DDCF51
:1015A0002A81229690E080E0AE014F5F5F4F20538A
:1015B000330B2A30310548F0019778F2EFE9FFE06C
:1015C0003197F1F700C00000F7CF089FB001099FE5
:1015D000700D1124C901860F971F2981EA01E4CFFC
:1015E0000E942C0ABACFDF91CF911F910F91FF90EB
:1015F000EF90089560E00C94920A08950C94FD0A0F
:1016000081E008950C94000B0895CF93C82F0E9499
:10161000FE0A8C2FCF910C94020BCF93DF93CDB7A2
:10162000DEB72B970FB6F894DEBF0FBECDBF4F834A
:10163000588769877A878B8761110E9445121E82BD
:101640001D8285E0FE013796DE01119601900D9214
:101650008A95E1F78C819D81892B89F449815A8192
:101660006B817C818D819E810E9445112B960FB6E6
:10167000F894DEBF0FBECDBFDF91CF910895898171
:101680009A8189238F3F51F3CE0101960E947F09F1
:101690008111E4CFEBCFFC01808191810C94050F87
:1016A000CF93C82F882329F18CEF8C0F813AA0F4B7
:1016B0006C2F80910101909102010E94DD26882308
:1016C00029F08C2F0E94E6110E9468128C2F0E9434
:1016D000DF11CF910C94681280E28C0F883048F4AF
:1016E000C77081E001C0880FCA95EAF70E942812EE
:1016F000F0CFCF910895882329F19CEF980F913A6C
:1017000020F40E94E6110C94681290E2980F983031
:1017100050F4877091E001C0990F8A95EAF7892FFC
:101720000E942E12F0CF9BE5980F933020F490E0AA
:1017300080E00C949F26885A873120F490E080E066
:101740000C94B52608951F93CF93DF93182FEB01C8
:101750000E94500B209731F4812FDF91CF911F9180
:101760000C947B0B8FE99FE00197F1F700C000001C
:101770002197F0CF70E060E0893311F460E570E00C
:101780000C94A30B882321F00E9428120C94681259
:101790000895882321F00E942E120C946812089557
:1017A000BF92CF92DF92EF92FF920F931F93CF934E
:1017B000DF936C01D62FC72FFC0102811581129592
:1017C0001F700E94FD11E82E8823A1F0E02E002357
:1017D00089F08C2F807F803429F080E28D0FE12CFE
:1017E000883040F082E00E94B9120E94FD1191E021
:1017F000E82EE926BC2EB2949FE0B922FBE0FB154F
:1018000098F1EB2DF0E0E05CFD4C0C94AE311C2F18
:101810001F70C07F11F01295107F0023A9F01123D3
:1018200059F080E28D0F883010F0D11109C0812F5E
:101830000E9428120E9468128D2F0E94500B14C023
:10184000812F0E943812F6CF8D2F0E947B0B11231F
:1018500059F080E28D0F883010F0D1112CC0812F0B
:101860000E942E120E9468122B2D2850330B243018
:10187000310520F40E947E260E94050BEE2009F41B
:1018800042C10E94F91180FD3EC1F60112820E9400
:10189000F3110E944F0EC6010E94A40D0E94F31185
:1018A000DF91CF911F910F91FF90EF90DF90CF903C
:1018B000BF900C945A0E812F0E943E12D3CF2C2F32
:1018C0002F70F22EC07FC03219F0F29480EFF82210
:1018D000DD2369F0D13049F1002391F1112351F159
:1018E000F601858180FFA8CF8F70858323C00023F8
:1018F00081F0111106C00E944B128F290E94C20B69
:10190000B3CF1130C1F70E944B128F290E945112A0
:10191000ABCF111106C00E945E128F2D0E94C90B21
:10192000A3CF113009F4A0CFF6CF002329F0163051
:1019300008F09ACF8F2DE2CF153008F095CFEDCF7C
:10194000112359F3D93349F4FFEF27EE33E0F15077
:1019500020403040E1F700C000008D2F0E947B0B3B
:1019600083CF8C2F837079F501117ECF4D2F429557
:1019700046954770440F440F8D2F8F70042E01C081
:10198000880F0A94EAF72D2F2071D4FF07C02FE0AB
:1019900030E001C0220F4A95EAF72095C695C6951A
:1019A000C370822BC23049F058F4C13019F00E9444
:1019B000300E5ACF0E942B0E57CF0E94350E54CFB7
:1019C0000E94290E51CF8695002311F08C2F817033
:1019D000882309F449CF4D2F429546954770440F0F
:1019E000440F8D2F8F70042E01C0880F0A94EAF7E0
:1019F0002D2F2071D4FF07C02FE030E001C0220F4F
:101A00004A95EAF72095C695C695C370822BC230D9
:101A100049F058F4C13019F00E94760E25CF0E948B
:101A2000710E22CF0E947B0E1FCF0E943E0E1CCF54
:101A3000CF70002329F08C2F0E944F0E8D2F5ECF88
:101A40008D2F0E94C90B8C2F0E945A0E0DCFD23FB2
:101A500089F160F4D03FC9F0D13F29F1002309F4A6
:101A600042C01111E9CE8C2F8F7121C0D33F39F1C3
:101A7000D43FA1F7002369F1CF718C2F0E944F0E44
:101A800063E08C2F0E949E12EFCE002341F01530B0
:101A900008F0EACE8C2F8F710E94660EE5CE1630CC
:101AA00008F0E2CEF7CF8C2F8F71002369F20E94ED
:101AB0004F0EDACE8C2F8F710023C9F3C5CF0023D0
:101AC00029F08C2F8F710E94470ECECE0E94440EBB
:101AD000CBCE81E00E94B912123008F4C5CE82E06C
:101AE0000E94B912C1CE112359F0D93309F035CF74
:101AF0008FEF97EEE3E081509040E040E1F72BCF8D
:101B00008C2F8F71A1CFDF91CF911F910F91FF90FB
:101B1000EF90DF90CF90BF9008950F931F93CF93D6
:101B2000DF93EC01688179818A810E940F0F8C011B
:101B30000E94800E0E94280EB801CE01DF91CF9145
:101B40001F910F910C94D00BCF93DF93EC018B81FD
:101B50009C81892B29F08881998189238F3F59F4B1
:101B6000DF91CF910895CE010E948D0DCE01DF91BE
:101B7000CF910C948109CE010E94CC098111F3CF41
:101B80000E94FD11882361F38A81882349F382E052
:101B9000DF91CF910C94B9120E9445120E94481215
:101BA0000C9468120E94ED110C94CC0D0E94351219
:101BB0000C94D20DE92FE295EF70E250EE3070F404
:101BC000F0E0E45BFD4C0C94AE31803F19F020F462
:101BD000883E20F481E00895843FE1F380E0089599
:101BE000883EC0F3813FD1F7F5CF93FB882780F97A
:101BF0000895FC01808191810E94050F0C94DA0DFB
:101C0000CF93DF9300D000D00F92CDB7DEB70F9007
:101C10000F900F900F900F90DF91CF910895CF9379
:101C2000DF9300D000D000D0CDB7DEB726960FB638
:101C3000F894DEBF0FBECDBFDF91CF910895089518
:101C40000C941F0E0E94200E8093E1010C94CC0D89
:101C500008950C94220E9091E101892B0C94220E90
:101C60009091E10189230C94220E9091E101892742
:101C70000C94220E0C941F0E0C943A0E0E943C0EF3
:101C80008093E0010C94CC0D80E00C943E0E91E02A
:101C900001C0990F8A95EAF7892F0C943E0E21E036
:101CA00030E001C0220F8A95EAF78091E001822B93
:101CB0000C943E0E21E030E001C0220F8A95EAF735
:101CC00020958091E00182230C943E0E21E030E0CB
:101CD00001C0220F8A95EAF78091E00182270C94D7
:101CE0003E0E9091E001892B0C943E0E9091E00104
:101CF00089230C943E0E9091E00189270C943E0EAE
:101D00000895E92FEE0FE90FEE0F8E0F982F9770C1
:101D100041E001C0440F9A95EAF78695869586952D
:101D200093E0899FF0011124E853FE4F30E020E05A
:101D300070E05191DF011197CB01022E02C0969500
:101D400087950A94E2F781708195852784238527FA
:101D50008C932F5F3F4F2330310559F70895E92FBA
:101D6000EE0FE90FEE0F8E0F982F977086958695E0
:101D7000869523E0829FF0011124E853FE4F50E046
:101D800040E080E0219130E0092E02C03695279591
:101D90000A94E2F721703327042E01C0220F0A941F
:101DA000EAF7822B4F5F5F4F4330510559F7089593
:101DB000CF92DF92FF920F931F93CF93DF936C012B
:101DC0000091E0018091E101082BC7E0D0E010E034
:101DD000FC2EC8010C2E02C0959587950A94E2F757
:101DE00080FD0CC02197A0F7F12C8F2DDF91CF91B2
:101DF0001F910F91FF90DF90CF900895B6018C2F27
:101E00000E943E15019771F3F0CFCF93DF93EC0161
:101E10000E94D80EBE01DF91CF910C943E151F9306
:101E2000CF93DF93EB019091C701992331F0CB0160
:101E3000DF91CF911F910C94050F882379F0CB018E
:101E40000E94D80E182F682FCE010E94810EBE016D
:101E5000812FDF91CF911F910C943E15CB010E94F1
:101E6000AF0E182FF4CF1F93CF93DF93C091E201F1
:101E700016E08091E3018C1304C0DF91CF911F9194
:101E80000895D0E01C9FF0011D9FF00D1124EC512E
:101E9000FE4F4081518162817381848195810E94CE
:101EA0000F0E2196C770E5CF409114025091150294
:101EB0006091160270911702809118029091190298
:101EC0000C940F0E1F93CF93DF9380911902807FA4
:101ED000A9F480911602882389F08091E201C091D3
:101EE000E3016091140270911502A0911702B09164
:101EF0001802D62FD72316E0C81304C0DF91CF9164
:101F00001F91089590E0109711F0DF3F19F40196AA
:101F10008770F2CF189F9001199F300D1124F9019D
:101F2000EC51FE4F41814713F2CF40814613EFCF72
:101F300042814111ECCF438154814A1B5B0B4436F3
:101F4000510528F7809119028F70806180931902E2
:101F5000F901E751FE4F80818F708061808384E1B9
:101F600092E00E94A40DDF91CF911F910C94330F4A
:101F7000AF92BF92CF92DF92EF92FF920F931F9397
:101F8000CF93DF93CDB7DEB761970FB6F894DEBF7E
:101F90000FBECDBF8C0185E0F801DE011D960190DA
:101FA0000D928A95E1F7F801E28084E1C82E82E083
:101FB000D82E60911702709118026115710509F40D
:101FC00048C19091140220911502892F82238F3FDE
:101FD00009F43FC140815181A380B480F090160282
:101FE000F501E61BF70BFF2009F404C180911902EB
:101FF000382F307FE436F10508F0BDC0311179C0CB
:10200000FE2C251323C0941321C0E1101FC08F7034
:102010008061809319020E94540FC6010E94A40D92
:1020200080911902F80185838F2D61960FB6F8947F
:10203000DEBF0FBECDBFDF91CF911F910F91FF90FB
:10204000EF90DF90CF90BF90AF900895AB2829F02C
:10205000842F85238F3F09F015C180E0F82FF170A0
:10206000DF2E80FF3CC08091E2012091E30136E049
:10207000821315C04D875E878D859E850E94050F52
:10208000292F22952F702230F0F0243018F59F7000
:10209000F1F0F8019581907FD1F4D12C1EC090E031
:1020A000389FF001399FF00D1124EC51FE4F6181F2
:1020B000651306C06081641303C06281E6120FC01D
:1020C00001968770D5CF9F7011F0882331F3805E21
:1020D000883018F3C8010E94A40DFD2CA5CFEE2076
:1020E00009F4A2CF80911902816080931902F12C2A
:1020F0009BCF251314C0941312C0E11010C0F80137
:102100008583C8010E94A40D86E0F801A4E1B2E035
:1021100001900D928A95E1F70E94540F85CFC80176
:102120000E94F90D882319F1EE2009F1809119021E
:10213000803270F0209114023091150238872F837D
:102140001986BB86AA868C87CE0107960E94A40DAD
:1021500086E0F801A4E1B2E001900D928A95E1F7E2
:102160000E94620F0E94540FFF24F3945DCFC801B8
:102170000E94A40DF9CF311113C07A2DB98AA88A13
:102180006E2D89890E94000E84E192E00E94A40DC8
:1021900086E0F60111928A95E9F70E94540FA7CFC5
:1021A00025130FC094130DC0E1100BC0F8018583F7
:1021B000C8010E94A40D86E0F60111928A95E9F704
:1021C00033CFC8010E94F90D882389F2EE2079F2FD
:1021D00080911902803208F4BBCF20911402309113
:1021E00015023A8329831B82BD82AC828E83CE0185
:1021F0000196ACCFE436F105F8F4FE2CEE2009F49C
:10220000B6CF25130BC0941309C086E0F801A4E1F2
:10221000B2E001900D928A95E1F706CFC8010E94C5
:10222000F90D811195CF8091190281608093190277
:10223000C8010E94A40DF8CE7A2DB98AA88A6E2D05
:1022400089890E94000E86E0F60111928A95E9F7CD
:1022500063CFEE2009F48BCFC8010E94F90DF82E50
:10226000882309F484CF86E0F801A4E1B2E001906C
:102270000D928A95E1F784E192E00E944B0B0E9457
:10228000620F4ACF81E08E25E9CE1F93CF93DF9373
:10229000CDB7DEB72C970FB6F894DEBF0FBECDBF1B
:1022A0004F83588769877A878B879C87CE010796EB
:1022B0000E94B80F882369F08A859B85892B39F0A5
:1022C0004F815885842F85238F3F09F071C016E018
:1022D0005FC086E0FE013796DE01119601900D92F7
:1022E0008A95E1F78A859B85892B89F38F8198856B
:1022F00089238F3F61F32091E30130E0C90101960A
:10230000877099274091E2014817190671F40E94DD
:10231000D60D1092E3011092E20186E0E4E1F2E0D2
:10232000DF011D928A95E9F7D2CF96E0929FD00106
:10233000939FB00D1124AC51BE4FFE013196019018
:102340000D929A95E1F78093E3010E94330FBFCF7E
:10235000819FC00111248C519E4F0E94B80F882389
:10236000E9F0E091E2011E9FF0011124EC51FE4FD3
:102370004081518162817381848195810E940F0E19
:102380008091E20190E00196877099278093E201A5
:102390008091E2019091E3018913DACF2C960FB678
:1023A000F894DEBF0FBECDBFDF91CF911F9108958E
:1023B00069857A858B859C850E940F0E88CF682F52
:1023C00080910101909102010C941327682F809154
:1023D0000101909102010C941527809101019091C7
:1023E00002010C94172780911A0285958595859591
:1023F000089580911A028770089590911A0297703B
:1024000081E009F480E008959091A50292FB2227D3
:1024100020F9281751F080FB92F99093A502809142
:10242000A4029091A5020C94FC1208958091A5023B
:1024300082FB882780F991E089270C94041281E0BF
:102440000C94041280E00C940412809126020895EA
:1024500090912602892B8093260208958095909171
:10246000260298239093260208951092260208953A
:1024700090912502892B8093250208958095909153
:10248000250298239093250208951092250208951D
:1024900010922402089580911B02089508950C94CF
:1024A0004E129091A50292FD08C090911B029817C0
:1024B00021F080931B020C944F12089580911B020F
:1024C000882329F010921B0280E00C944F1208958B
:1024D000E0910101F0910201809126028083E09158
:1024E0000101F0910201808190912502892B808366
:1024F000E0910101F0910201808190912402892BE9
:10250000808390911B02992381F0E0910101F09169
:1025100002018081892B80838091010190910201C9
:102520000E94CB2681110E945E1280910101909140
:1025300002010C94942608950C949B129091A5028C
:1025400092FD10C098E0899F90011124622B609346
:102550001A020E944F0E80911A02859585958595E5
:102560000C949C120C944F0E10921A0280E00C9462
:102570009C1290911A028095892380931A02282F29
:10258000277039F4282F082E000C330B92171306EE
:1025900021F49091A50292FF07C0859585958595B8
:1025A0000E945A0E0C94B41208956FEF7FEF90E0E2
:1025B00080E00C94283290E080E00E940432893E52
:1025C0009E4F11F40C94111B80E0089582E090E07E
:1025D0000C94FC3183E090E00C94FC31CF9384E0C8
:1025E00090E00E94FC31C82F82E290E00E94FC3112
:1025F000982F8C2FCF910895CF93C92F682F84E007
:1026000090E00E940A326C2F82E290E0CF910C940D
:102610000A32AB01BC018FE090E00C941C32AB019C
:10262000BC0183E190E00C941C3260E070E0CB01CF
:102630000C940F1360E070E0CB010E9409130C941E
:10264000151369EE7EEF90E080E00E94283260E092
:1026500082E090E00E940A3260E083E090E00E9415
:102660000A321092E10160E084E090E00E940A32B8
:1026700060E082E290E00E940A3260E085E090E053
:102680000E940A3260E086E090E00E940A326FEF1A
:1026900087E090E00E940A3240E050E0BA0188E012
:1026A00090E00E941C3260E08DE090E00E940A32CF
:1026B00040E050E0BA0188E190E00E941C3260E006
:1026C00087E190E00E940A3240E050E0BA018CE1DC
:1026D00090E00E941C3270E060E080E290E00E9496
:1026E000283240E050E0BA0188E190E00E941C32BC
:1026F00080E00E942A1B0E94501B0C941A130C9419
:102700002113682F8EE090E00C940A320E94EE278D
:1027100060933602709337028093380290933902A7
:1027200060933202709333028093340290933502A7
:10273000089585B7806885BF85B7806885BF08958F
:10274000089508950C94A01308950C94A4130E9466
:1027500099138CE196E10E945A280E94A1130C94CF
:10276000A2130C941218089508950E94B3130C94A8
:10277000B4130E94D9270E941E270E945F1B0E944B
:1027800005170E94EB1D80E00E94481E0C94A513C3
:102790009F92AF92BF92CF92DF92EF92FF920F93F0
:1027A0001F93CF93DF93CDB7DEB72A970FB6F89478
:1027B000DEBF0FBECDBF0E948817C82E81110E94B8
:1027C000861388E2A82E82E0B82E10E000E0902E5A
:1027D000802F0E945616E82EF501F1905F01F81641
:1027E00009F452C080913A0281FD0E945C168F2D3F
:1027F0008E25D12CFF24F394982F9F2109F43FC0FC
:102800000E94B113882399F0DE829F82EF2081E03D
:1028100009F480E088870E94E2278160782F9A87F8
:1028200089874E815F8168858A850E940D0BF8013A
:10283000E85DFD4F8081F826F0820E940421C110DE
:102840000E94CD1F0E947E2690912702891799F140
:102850000E947E26809327022A960FB6F894DEBF48
:102860000FBECDBFDF91CF911F910F91FF90EF90E1
:10287000DF90CF90BF90AF909F900C94050BD394B6
:10288000FF0CF6E0DF12B8CF0F5F1F4F0A301105C3
:1028900009F09DCF8FEF89838A831B820E94E227F4
:1028A0008160782F9D838C8349815A816B818D81D2
:1028B0000E940D0BC2CF2A960FB6F894DEBF0FBE52
:1028C000CDBFDF91CF911F910F91FF90EF90DF90DF
:1028D000CF90BF90AF909F900895CF93DF930E94C9
:1028E0004215EC01811523E5920790F5811532E53B
:1028F000930708F096C081159042C8F4C11581E095
:10290000D80788F4C53AD10548F4C430D10558F445
:10291000C130D10541F0D0E0C0E005C0CE01805EFD
:1029200091090897C0F7CE01DF91CF910895C115A5
:1029300091E5D90708F070C0C11520E5D20708F06D
:102940004EC0C11530E4D30730F3DF70D06AEBCF4F
:10295000811546E59407F0F4C11585E5D80708F020
:1029600075C0C11594E5D90708F06BC0CE0183701E
:10297000992721E030E002C0220F331F8A95E2F749
:10298000C695C69590E2C99FE0011124C22BD32BB6
:10299000DA68C9CF81152AE5920778F4811539E5FF
:1029A000930708F05EC0811548E5940708F4B3CF9B
:1029B000D82FCC27C06FD06AB6CF905681159042E1
:1029C00008F0A9CF8D2F8F710E94D91590E0982F14
:1029D000882788279F719C012C2BE90140C0CE01DC
:1029E000E4E096958795EA95E1F783702C2F26957C
:1029F0002695237040E2249F90011124382B8C2FC0
:102A00008370C1E0D0E002C0CC0FDD1F8A95E2F7F1
:102A1000C22BD32BDC6887CFDC2FCC27C16FD06AC9
:102A200082CF8370992721E030E002C0220F331F4C
:102A30008A95E2F7C695C69580E2C89FE001112409
:102A4000E7CFDC2FCC27C46FD06A6DCF8C2F0E94CC
:102A5000D915C82FD0E0DC2FCC27CC27DF71D0626E
:102A600062CF8F700E94D91534E0D695C7953A95FC
:102A7000E1F7CF709C2FEC01D06955CF0E94201D4B
:102A80000C946D1482389105B1F1B0F48133910545
:102A900009F475C048F48932910509F469C08A3295
:102AA000910509F473C008958533910509F459C05F
:102AB0008933910501F10895833E9105A9F138F418
:102AC000803E9105F9F0823E910549F10895863ED8
:102AD0009105A9F1873E9105C9F1843E910519F54B
:102AE0002091A50221FF1FC08091A40284FD14C083
:102AF00087EE90E008952091A4022370A1F080EE6B
:102B000090E008952091A40220FD47C03091A502D5
:102B100030FF09C024FF44C090E080E004C0209151
:102B2000A40222FDF7CF08952091A40222FD3BC00C
:102B30003091A50230FDE3CF24FFF5CFEDCF2091FA
:102B4000A40223FFF0CF24FDE7CFD2CF2091A4022F
:102B500023FD2CC03091A50231FFEECF84EE90E032
:102B600008952091A40225FFDECF89E290E0089528
:102B70002091A40225FFD7CF85E390E0089520910E
:102B8000A40226FFD0CF8AE290E008952091A4020B
:102B900026FFC9CF81E390E0089589E390E008958E
:102BA00083EE90E0089582EE90E0089586EE90E046
:102BB00008959091A40292FF06C0282F2871283012
:102BC000F9F4877F846093FF06C0282F287128318D
:102BD000F1F4877E84612091A50220FF06C0382F82
:102BE00038713830D9F4877F816021FF06C0282FE3
:102BF00028712831D1F4877E816194FD877E089504
:102C0000282F24712430F9F68B7F8860DCCF282FA1
:102C10002471243101F78B7E8861DDCF382F31712B
:102C2000313019F78E7F8860E0CF282F2171213154
:102C300021F78E7E8861E1CF80E008950C94D51253
:102C40000E9488178FE39CE90197F1F700C000000C
:102C50000E94881780E00E94561680FF04C00E94E0
:102C60001E160C94492808950C9420160E94DB121D
:102C7000811102C00E947F130E94E61280933A02E3
:102C80000E94EE129093A5028093A4020E94341633
:102C90000E94EA120E94290E8091E0010C943C0EE1
:102CA00008950C94501608950C945316E82FF0E0F4
:102CB000E055FD4F80810895089580EA8A95F1F7E7
:102CC000089500C008950C945D16F894E82FE295DD
:102CD000EF70F0E031A1282F2F7081E090E001C06B
:102CE000880F2A95EAF7982F9095932391A392A1A4
:102CF000892B82A37894089508950C947C16CF9321
:102D0000DF93C4EAD1E089918F3F11F00E946516EC
:102D100081E0C93AD807B9F7CEE9D1E089918F3F70
:102D200011F00E94651681E0C43AD807B9F7DF9127
:102D3000CF910895CF92DF92EF92FF920F931F935E
:102D4000CF93DF93EC01D62E062F10E0C8018C55EF
:102D50009E4F7C01FC0180818F3F09F44BC0F894A9
:102D6000E82FE295EF70F0E091A18F7021E030E064
:102D700001C0220F8A95EAF7892F822B81A382A1B5
:102D80002095282322A378940E946116EEE9F1E0B1
:102D900030E020E0C12C51E041914F3FA1F1A42F40
:102DA000A295AF70B0E090968C9190E04F7002C009
:102DB000959587954A95E2F780FD25C0852F022ECF
:102DC00001C0880F0A94EAF7C82A2F5F3F4F2630C8
:102DD000310511F7F70180818F3F11F00E946516D0
:102DE00061E0C11001C060E08D2D0E946316C00F2C
:102DF000D11FC882DF91CF911F910F91FF90EF906B
:102E0000DF90CF90089580E0DFCF0E942C18809152
:102E100003018091030195E0811190E09093BB0242
:102E200085E0891B8093BA020E947F16E6EAF2E0F1
:102E3000A0EBB2E011921D9282E0E03BF807D1F7DF
:102E400085E00E94DB170E94B2090C943618FF92AD
:102E50000F931F93CF93DF9300D000D00F92CDB785
:102E6000DEB70E941218F82E6091BB02882309F485
:102E700042C08E010F5F1F4F85E0F80111928A95C5
:102E8000E9F7862F90E0B80180559D4F0E944418C5
:102E9000E091BA029E012A5F3F4FF0E0882311F1D2
:102EA000BF0160557D4FD801F12CFB014191BF015D
:102EB0009D91491731F0AF0141505109FA019083BA
:102EC000F82EA217B30789F70E94B8098F2D0F902B
:102ED0000F900F900F900F90DF91CF911F910F9156
:102EE000FF900895E055FD4FD80111921D92A21751
:102EF000B307D9F7E9CF70E060557D4F8091BA02F2
:102F000090E080559D4F0E94D1180E947D16DECF23
:102F1000EF92FF920F931F93CF93DF93CDB7DEB75E
:102F20002A970FB6F894DEBF0FBECDBF8E010F5F9C
:102F30001F4F8AE0F80111928A95E9F7F12C6F2D65
:102F4000C8010E949A16F394F5E0FF12F8CF4AE008
:102F500050E0B80186EA92E00E94E6317C0121E06F
:102F6000892B09F420E0E114F10441F08AE0F80132
:102F7000A6EAB2E001900D928A95E1F76091BB025A
:102F800070E060557D4F45E086EA92E00E94DC17D4
:102F900081E090E0EF2811F40E9427172A960FB6DF
:102FA000F894DEBF0FBECDBFDF91CF911F910F917F
:102FB000FF90EF9008950895FF920F931F93CF9382
:102FC000DF93F82E092F162FD72FC42F222349F075
:102FD00081E080933D020E94E22790933C0280931F
:102FE0003B0280913D028823A1F080913B029091A9
:102FF0003C020E94FA27059760F0EF2DF02FA12FD9
:10300000BD2FCE0FDF2FD11DEC17FD0741F410921D
:103010003D02DF91CF911F910F91FF900895819113
:103020008D93F2CF80914002811107C00E94732FCF
:10303000882351F081E08093400281E0909140022A
:10304000913009F080E0089582E0809340020E9470
:103050006E2FF3CF0C9412180E942A18809303014C
:103060000E94121881110C947A1808950E94121867
:10307000811102C00C947C18089581E09091410266
:103080009A3008F080E008950F931F93CF93DF9359
:10309000EC018B01809141028A30B8F4B801CE0175
:1030A0000E94CF18C82F811122C0809141028F3F0A
:1030B000B9F40E94E22790933F0280933E028C2F46
:1030C000DF91CF911F910F91089580913E029091D1
:1030D0003F020E94FA27843F914000F7C0E0EFCF03
:1030E0008F5F809341028A3020F7C1E0E8CF1092D1
:1030F0004102E5CF0C94B8240C94BB24EF92FF92CC
:103100000F931F93CF93DF937901C82F880FDD0BA7
:1031100041155105A9F08AE08C9FF0018D9FF00DBB
:103120001124EC5FFE4F838194818E5B9D4F228141
:1031300030E04217530708F49A01A9010E94F331C5
:10314000CE010E94C525892B11F501151105E9F065
:103150008AE08C9FF0018D9FF00D1124EC5FFE4FF3
:10316000458150E00417150708F4A8018AE08C9FF8
:10317000F0018D9FF00D1124EC5FFE4F6681778189
:103180006E5B7D4FC7010E94F33181E001C080E09A
:10319000DF91CF911F910F91FF90EF9008950C94C4
:1031A000E8190C94041A0F931F93CF93DF9300D068
:1031B00000D0CDB7DEB76091590270915A0280916C
:1031C0005B0290915C020E94092811E0643671054F
:1031D0008105910518F10E9444276E5F7F4F8F4F44
:1031E0009F4F69837A838B839C8310E000E030E0FB
:1031F00020E044E050E0BE016F5F7F4F82E00E941C
:103200007E18182F882351F00E94EE2760935902F0
:1032100070935A0280935B0290935C02812F0F900F
:103220000F900F900F90DF91CF911F910F91089504
:10323000AF92BF92CF92DF92EF92FF920F931F93C4
:10324000CF93DF9300D000D000D0CDB7DEB77B01A5
:10325000C090AE01D090AF0101E010E09E012A5F66
:103260003F4F50E040E070E060E080E00E947E1858
:10327000182F882309F448C056018FEFA81AB80AFE
:1032800060915502709156028091570290915802B8
:103290000E940928643671058105910568F105E0F1
:1032A00010E09E012F5F3F4F50E040E070E060E093
:1032B00081E00E947E18D82E65E070E0C5010E9472
:1032C000EC1D11E09E81981310E01D2141F10E9438
:1032D000EE276093550270935602809357029093A5
:1032E000580285E0FE013196A0E5B2E001900D9212
:1032F0008A95E1F711E013C065E070E0C5010E9416
:10330000EC1D9E818913CBCF85E0F6013196DE015D
:10331000119601900D928A95E1F71111E2CF85E0A7
:10332000E0E5F2E0D70101900D928A95E1F7812F57
:1033300026960FB6F894DEBF0FBECDBFDF91CF91BA
:103340001F910F91FF90EF90DF90CF90BF90AF90C3
:103350000895AF92BF92CF92DF92EF92FF920F93B8
:103360001F93CF93DF937C015B016A010E943D189C
:1033700001E010E0882311F00AE010E0C1E0D0E0A5
:10338000F894B501C701F60109957894811104C03C
:1033900021960C171D075CF4DF91CF911F910F91BF
:1033A000FF90EF90DF90CF90BF90AF900895CC9FAB
:1033B0009001CD9F300D300D112490E080E045E369
:1033C0004A95F1F70000019682179307C1F7D8CF0D
:1033D0000F931F93CF93DF93EC018B0148E159E1E9
:1033E0000E94A919882351F043ED58E1B801CE019C
:1033F000DF91CF911F910F910C94A91980E0DF917B
:10340000CF911F910F9108950F931F93CF93DF9347
:10341000F894C091AE01D091AF01CE01019625E0A4
:10342000FB01DC0101900D922A95E1F765E070E067
:103430000E94EC1D88837894F8946E817F81888542
:10344000998500914C0210914D0220914E023091CD
:103450004F02601771078207930751F060934C0287
:1034600070934D0280934E0290934F020E94272743
:103470007894DF91CF911F910F9108950E945F275B
:103480000E9496290E94AF290E94C1290E94B5136B
:10349000FBCF80915F0208959C013056211540E2D8
:1034A000340748F0305E211540E1340720F0315CEC
:1034B00021153F4178F499279C0124503109243289
:1034C000310578F02752310981E02E30310550F076
:1034D00080E008958F3F910579F370F390E080E0EC
:1034E000EBCF81E008950C944C1ACF92DF92EF92CB
:1034F000FF92CF93DF930E94731A882309F448C088
:1035000080915D0290915E020097E1F10E94FA279E
:103510009C0150E040E060E67AEE80E090E00E949E
:103520008F31CA01B90125E030E040E050E00E944F
:103530008F3160915F022F3F310519F010F02FEFAE
:1035400030E0C62FD0E02C1B3D0BB90190E080E0AD
:103550000E94333027EA39E747E45DE30E940231F5
:103560000E94ED2F6B017C01BE01DD0F880B990BD2
:103570000E943530A70196010E94812F0E940430DD
:1035800060935F020E94E22790935E0280935D0247
:10359000DF91CF91FF90EF90DF90CF900895CF9281
:1035A000DF92EF92FF92CF93DF9380915D02909133
:1035B0005E020E94FA27893E934060F160915F02AB
:1035C000C62FD0E0662777276C1B7D0B072E000CDB
:1035D000880B990B0E94353027EA39E747E45DE311
:1035E0000E9402316B017C01BE01DD0F880B990B3B
:1035F0000E9435309B01AC01C701B6010E94812FAA
:103600000E94043060935F020E94E22790935E0262
:1036100080935D02DF91CF91FF90EF90DF90CF908C
:10362000089583E290E00E94FC31823289F484E2C2
:1036300090E00E94FC31863059F485E290E00E94CF
:10364000FC3191E0843109F090E0892F8170089578
:1036500080E0FCCFCF93C82F6FEF811162E283E24D
:1036600090E00E940A326FEFC11166E084E290E0C0
:103670000E940A326FEFC11164E185E290E0CF91C0
:103680000C940A32089586E290E00E94FC31682F83
:1036900070E090E080E0089586E290E00C940A32B9
:1036A00080E00E942A1B60E070E0CB010E944C1B6E
:1036B0000E94981C0E94841D81E00C942A1B0E9489
:1036C000421B0E94111B811102C00C94501B0895D3
:1036D000CF93FB01C281CC2309F19C0122513F45CC
:1036E0002031310520F582510E94941DC0E08C2FBD
:1036F000CF91089581E00E944F0E43E062E081E0A7
:103700000E94A909F3CF81E00E945A0E43E062E0D3
:1037100081E00E94A909EBCF82E0F6CF8031FFE57E
:103720009F0789F381319F45B9F3C1E0E0CF803134
:10373000EFE59E07F9F281319F45C9F682E0DBCFC4
:103740002FEFFC0120830895EF92FF920F931F93B8
:10375000CF93DF93EC01062FE881E150E33108F0CD
:103760005EC0F0E0E65AFD4C0C94AE31198289E05F
:103770008A83602FCE01DF91CF911F910F91FF902F
:10378000EF900C9492288981823069F0833071F037
:103790008130D9F40E94EE270E94B4316A837B8382
:1037A0008C839D83E6CF0E94431BF6CF7E0182E08F
:1037B000E80EF11C10E0812F0E945616F70181934C
:1037C0007F011F5F1A30B9F7D4CF602FCE010E945E
:1037D000A01BCFCF89818230C1F76A817B818C8128
:1037E0009D810E94B4310E944C1BC3CF4B816A81E2
:1037F00089810E946A1C9827892798279D838C833A
:10380000B8CF2C813D813227232732274B816A8113
:1038100089810E94831CADCF0E94981CAACF8FEF94
:103820008883A7CF0E942D1D8983A3CF0E942F1DBF
:103830009827892798279A8389839BCF6B8170E08B
:1038400089819A81AE014C5F5F4F9827892798271D
:103850000E94321D8ECF6B8170E089819A81AE010A
:103860004C5F5F4F9827892798270E94591D81CF69
:103870000E94841D7ECF0E94581CD6CF6B8170E0C1
:1038800089819A81AE014C5F5F4F982789279827DD
:103890000E94D01C6ECF6B8170E089819A81AE014D
:1038A0004C5F5F4F9827892798270E94F61C61CFAD
:1038B00084E0089550E0440F551F9CE0699F400D3F
:1038C000511D112498E7899F400D511D1124CA01F3
:1038D000879608950F931F93CF93DF930E945A1CEE
:1038E0008C010E94FC31C82FD0E0DC2FCC27C8010E
:1038F00001960E94FC319E01282BC901DF91CF91D6
:103900001F910F9108950F931F93CF93DF93122F61
:10391000032F0E945A1CEC01602F0E940A32612F73
:10392000CE010196DF91CF911F910F910C940A3235
:10393000AF92BF92CF92DF92EF92FF921F93CF93FD
:10394000DF938CE6C82E86E0D82ED0E07601C0E06A
:1039500014C0F50125913491412F6C2F8D2F0E94B9
:10396000831C82E0A80EB11C1F5F163091F78CE01B
:10397000E80EF11CCF5FCA3019F0570110E0E9CF13
:10398000DF5F88E7C80ED11CD43001F7DF91CF91FB
:103990001F91FF90EF90DF90CF90BF90AF90089570
:1039A000EF92FF920F931F93CF93DF93EC018A0165
:1039B0007C01E60EF71ECE018796CE15DF0539F4A1
:1039C000DF91CF911F910F91FF90EF900895C03E2E
:1039D00021E0D20740F40E94FC31F80180830F5FA0
:1039E0001F4F2196E8CFF8011082F9CFCF92DF92D6
:1039F000EF92FF920F931F93CF93DF937C016A01A5
:103A00008C01060F171FEC01CE018796C017D10756
:103A100049F4DF91CF911F910F91FF90EF90DF90CC
:103A2000CF900895C03E21E0D20740F4FE01EE1988
:103A3000FF09EC0DFD1D60810E940A322196E4CF42
:103A4000462F843038F47A3028F4663018F4672F23
:103A50000C946A1C90E080E0089580E1089589EF5D
:103A600091E00895EF92FF920F931F93CF93DF930E
:103A7000EC018A017C01E60EF71ECE01895F9D4FA5
:103A8000CE15DF0539F4DF91CF911F910F91FF9093
:103A9000EF900895C93F21E0D20740F40E94FC3125
:103AA000F80180830F5F1F4F2196E7CFF801108246
:103AB000F9CFCF92DF92EF92FF920F931F93CF93A4
:103AC000DF937C016A018C01060F171FEC01CE0108
:103AD000895F9D4FC017D10749F4DF91CF911F91A6
:103AE0000F91FF90EF90DF90CF900895C93F21E0B4
:103AF000D20740F4FE01EE19FF09EC0DFD1D6081B7
:103B00000E940A322196E3CFCF93DF93C7E0D2E041
:103B100060E0CE010E940A322196C11584E0D807E8
:103B2000B9F7DF91CF910895DF92EF92FF920F9353
:103B30001F93CF93DF9300D000D0CDB7DEB7F82E20
:103B40008FE08F1540F08FEF93E00E94FC3107E08B
:103B500012E08823C1F00F900F900F900F90DF912B
:103B6000CF911F910F91FF90EF90DF900895011575
:103B700084E0180781F3C8010E94FC31811101C063
:103B8000FA940F5F1F4FF110F2CF19821A821B8235
:103B90001C82DD24D39478018FEFE81AF80AC8015B
:103BA0000E94FC3189831A828823A9F29FEF980F23
:103BB000933078F48A83D9820E5F1F4FC7010E9429
:103BC000FC318B83882339F2CE0101960E94FA0AD8
:103BD000E2CF8701F9CF0895FC01680F791F8FEFBD
:103BE00091E36E177F0709F408952191822728E059
:103BF00030E087FF06C0880F892721503109C9F7B7
:103C0000F0CF880FFACFCF92DF92EF92FF920F930F
:103C10001F93CF93DF936C017B0164E670E088E72C
:103C20000E945623EC0197FD12C010E000E0F6015F
:103C3000E00FF11F849164E670E00E94D023EC0154
:103C4000892B29F40F5F1F4F0E151F0581F70E9466
:103C50005324CE01DF91CF911F910F91FF90EF90F0
:103C6000DF90CF900895EDEBF2E080E092E0DF018D
:103C70009C011D9221503040E1F7F093C404E09381
:103C8000C3048FEF9FEF90938C0280938B02089573
:103C90000E94E7078093870280FD0FC080E8809331
:103CA00086020E9450236DE070E083E199E00E945B
:103CB000031E892B21F080E0089580E2F0CF8091EF
:103CC000870263E070E081FD26C080E199E00E94F8
:103CD000031E892B81F76DE070E080E099E00E947F
:103CE000031E892B41F70E94EE27605A75418F4FC2
:103CF0009F4F6093BF047093C0048093C10490935E
:103D0000C2040E94331E81E080938A02809389025C
:103D10001092880208958DE099E0D9CF2091860213
:103D200036E0839FC0011124629F800D911D1124F4
:103D3000811522E0920714F090E080E083549D4FBB
:103D40009093C4048093C30408952091C3043091D8
:103D5000C404275B324040918602642F70E0C901A1
:103D60000E947B31481B463010F4240F311D211571
:103D700082E0380710F030E020E023543D4F3093CC
:103D8000C4042093C30408951F93CF93DF93162F89
:103D90008A3031F481E0DF91CF911F910C943E1F66
:103DA0008D3011F480E0F7CFC091C304D091C404EA
:103DB00096E0FE01A0E6B2E001900D929A95E1F73F
:103DC000803EC8F086E0FE0111928A95E9F7111154
:103DD0001EC0C091C304D091C40446E050E0BE01AF
:103DE00080E692E00E94E631892BF9F4DF91CF91D1
:103DF0001F910C94A51EF6E08F9FB0011124605E08
:103E0000764F46E050E0CE010E94DD31E0CFE091F8
:103E1000C304F091C4049F012A5F3F4F2E173F0750
:103E2000C1F2808180958193F9CFCD5BD240CE01E4
:103E300025E0969587952A95E1F721E030E0A901E4
:103E400002C0440F551F8A95E2F7CA0140918B02C8
:103E500050918C02842B952B259645E0D695C795DD
:103E60004A95E1F702C0220F331FCA95E2F7822B71
:103E7000932B90938C0280938B02B8CFCF93382FE3
:103E8000E091C304F091C404ED5BF24020918602FE
:103E9000622F70E0CF010E947B31281B822F3323D9
:103EA00069F066E00E946F31C82FC15010F4CF91C5
:103EB000089560E080E20E94C41EF7CF9F01280FA2
:103EC000311D2115324018F080E0F0E0E0E08E0F67
:103ED0009F2F911D83549D4F9093C4048093C304DE
:103EE000E6CFFF920F931F93CF93DF93EC01F62E53
:103EF000FC0101900020E9F78F0101501109C01762
:103F0000D10730F0DF91CF911F910F91FF9008956D
:103F10006F2D89910E94C41EF2CFCF93DF93209121
:103F2000C3043091C4042D5B3240A901460F571FD2
:103F30004130524020F060E072E0621B730B409110
:103F40008B0250918C02FC01C901620F731FC1E00A
:103F5000D0E08617970738F050938C0240938B027D
:103F6000DF91CF9108952491DC01A354BD4F3C9182
:103F7000321781F02C939C01A5E036952795AA95E0
:103F8000E1F7DE0102C0AA0FBB1F2A95E2F79D01EF
:103F90004A2B532B01963196DCCF80918A028111F6
:103FA00003C08091890208950E94EE27605A7541EE
:103FB0008F4F9F4F6093BF047093C0048093C104E0
:103FC0009093C204809189028111EBCF62E070E08E
:103FD0008EEF98E00E94031E892B19F781E08093F1
:103FE0008902DFCF2F923F925F926F927F928F92E2
:103FF0009F92AF92BF92CF92DF92EF92FF920F9378
:104000001F93CF93DF9380918A02882369F02091D8
:104010008B0230918C022115310531F0809188029C
:1040200061E070E0882399F0DF91CF911F910F91AB
:10403000FF90EF90DF90CF90BF90AF909F908F90C8
:104040007F906F905F903F902F9008958F5F082F23
:1040500010E01B01082E02C0220C331C0A94E2F768
:10406000A90142215321452B89F39091870290FDAC
:1040700044C08295880F80768093240198013695FC
:1040800027953695279520932701815E80932501FA
:104090001092280124E630E047E050E062E271E04F
:1040A00088E70E94FF23892B09F0BECFA80125E0F5
:1040B000440F551F2A95E1F78091870280FD2BC0A0
:1040C00043545D4F04E610E020E230E060E488E70E
:1040D0000E942624892B09F0A7CF0E94CD1FE10161
:1040E000C095D09580918B0290918C02C823D923E2
:1040F000D0938C02C0938B0297CF880F880F880FC4
:104100008093240110922701895F8093250183E029
:1041100080932801BFCFE6E6F2E080E2DF011D9246
:104120008A95E9F7A4EBB1E000EB11E088EBC82E2B
:1041300081E0D82E97E0592E772473948D91E80171
:1041400029918E01240F352F311D23543D4FE82F27
:10415000F0E0EA59FD4F90E080E0652C681A872C6A
:10416000082E01C0880C0A94EAF77901A12CE70116
:10417000B9907E01B820662D6A196770962E062EBA
:10418000000C770BDB2D01C0DD0F9A94EAF77195D7
:10419000619571096770772701C0B6946A95EAF74F
:1041A000BD2A6081962E9B289082A39468E0A61277
:1041B000DECF019631968830910579F6CA16DB0676
:1041C00009F0BCCF04E610E020E230E046E652E021
:1041D0007DCF8091890290918A02911103C091E074
:1041E00089270895882369F062E070E08CEF98E0F9
:1041F0000E94031E892B19F0809189020895109264
:10420000890280918902EBCF0F931F9380918A02DC
:10421000882389F18091BD049091BE040E94FA2701
:10422000C29760F00E94E2279093BE048093BD0481
:1042300060E080E00E948E1E0E94F0070E94F21F44
:10424000809189028823B9F00E94EE270091BF0473
:104250001091C0042091C1043091C204601B710B05
:10426000820B930B6F3F7F4F8F4F9F4720F41F911F
:104270000F910C94E9201F910F9108950F931F93B4
:10428000CF93DF93C42FD22FFC0182818823C9F002
:1042900040938F020E94E22790938E0280938D02BA
:1042A00080E28C0F883008F050C0C77081E001C0F8
:1042B000880FCA95EAF7DF91CF911F910F910C9467
:1042C000C20B10918F02141335C080918D02909112
:1042D0008E020E94FA278436910560F5C0E2CD0F68
:1042E0001D17B9F080E2810F883040F4177081E02B
:1042F00001C0880F1A95EAF70E94C90BC83048F42C
:1043000081E09D2F977001C0880F9A95EAF70E946F
:10431000C20B802F0E94BA0BC830B8F4D77081E06E
:1043200001C0880FDA95EAF7DF91CF911F910F91C5
:104330000C94C90B80E28C0F883038F4C77081E090
:1043400001C0880FCA95EAF7EFCFDF91CF911F9197
:104350000F9108950F939C01CB01233F4CE5340747
:1043600059F1A8F4283DFCE53F0701F1293D4CE552
:104370003407D1F1273D3C4591F406E221EE41EEB0
:1043800067ED7CE50E943E2180E00F910895253F76
:10439000FCE53F07E9F0B0F0263F3C45F9F0FC01B1
:1043A0008281882339F110928F02EFCF07E225EE48
:1043B00045EE68ED7CE5E6CF06E221EE40EE63EFE8
:1043C0007CE5E0CF07E225EE44EE64EF7CE5DACF52
:1043D00006E221EE42EE65EF7CE5D4CF07E225EE62
:1043E00046EE66EF7CE5CECF08E221E045EE69EDD2
:1043F0007CE5C8CF81E0C9CFCF93DF93EC01FB010F
:104400008281882309F420C1C330FDE5DF07C8F5A8
:10441000CA3F9CE5D90730F49E0122503C45243127
:10442000310598F50E94EE129093A5028093A402A4
:10443000C031FCE5DF0709F4E0C008F061C0C83016
:104440009CE5D90709F4CBC088F5C430FCE5DF074B
:1044500009F4B3C0E8F4C2309CE5D90709F4A7C059
:104460008091A4028260C330DC4509F4A3C080912E
:10447000A4029091A5020E94FC120E94D60D80E039
:1044800004C0C136EDE5DE0769F2DF91CF910895F2
:104490008091A4028061C630FCE5DF0709F48AC080
:1044A00008F48FC08091A402806284C08091A4022D
:1044B0008D7FCC309CE5D90709F47CC070F48091E5
:1044C000A4028C60CA30FCE5DF0709F473C008F46D
:1044D0008AC08091A4028E7F6DC08091A402877FE4
:1044E000CE309CE5D90709F465C08091A4028B7F8A
:1044F000CF30DC4508F45EC08091A4028F7E5AC0A4
:10450000CC3FFCE5DF0709F474C040F5C4319CE5FD
:10451000D90709F48AC058F4C231FCE5DF0709F471
:1045200074C008F46EC08091A402837F43C0CA3F68
:104530009CE5D90709F449C008F04DC0C531DC45F8
:1045400009F095CF8091A40282FB992790F921E090
:10455000922790FB82F990FB83F92CC0C1158DE561
:10456000D80709F458C088F48091A5028360CE3F33
:10457000ECE5DE0769F18091A5028D7FCF3FDC4538
:1045800038F18091A5028C7F23C0C2308DE5D80719
:1045900009F458C008F452C0C136DD4509F067CFB0
:1045A0009091A402892F8F7E94FF806103C0809137
:1045B000A40281608093A4025ACF8091A4028460F7
:1045C000F9CF8091A4028860F5CF8091A502816027
:1045D0008093A5024CCF8091A5028260F9CF809193
:1045E000A4028064E7CF0E94D60D8091A402806867
:1045F000E1CF8091A5028E7FEBCF8091A4028F7DC9
:10460000D9CF8091A4028F7BD5CF0E94D60D809107
:10461000A4028F77CFCF8091A502982F90959170AB
:104620008E7F892B90FB81F9D3CF0E94D60D90917C
:10463000A402892F97FB87F98058BCCF81E00E94A4
:10464000811315CF80E0FBCF81E01FCFCF93DF93A5
:10465000EB0186319C4511F50E9425129A81992320
:1046600099F08A7A91E009F490E090939002811198
:1046700009C089E20E94DF110E94681280E0DF9188
:10468000CF91089585E3F6CF80919002811104C007
:1046900089E20E94E611F0CF85E3FBCF81E0EFCF06
:1046A0001092B9008CE08093B80008959F92AF9269
:1046B000BF92CF92DF92EF92FF920F931F93CF930F
:1046C000DF93B82EEB010E94E2276C01EE24E39405
:1046D000F12CC431D10560F025E0E22EF12CCF3F62
:1046E000DC0731F0CE0164E170E00E947B317B0198
:1046F00084EAA82E94E8992E1092BC00A092BC00E7
:104700000E94E2278C018091BC0087FF0DC0809140
:10471000B900887F883039F18091B900887F803175
:1047200011F10FEF1FEF09C00E94E227801B910BD0
:104730008E159F0540F30EEF1FEFCF3FDC07E1F230
:10474000C6010E94FA278C179D07B0F2C801DF91BD
:10475000CF911F910F91FF90EF90DF90CF90BF907E
:10476000AF909F900895B092BB009092BC000E94C1
:10477000E2278C018091BC0087FF0AC08091B900BC
:10478000887F883111F0803461F610E000E0DECFE0
:104790000E94E227801B910B8E159F0558F3CBCF0B
:1047A0000F931F93CF93DF93EB018093BB0084E8BB
:1047B0008093BC000E94E2278C018091BC0087FF9F
:1047C00011C02091B900287F81E090E0283211F4D7
:1047D00090E080E0919581959109DF91CF911F91B3
:1047E0000F910895CF3FDC0741F30E94E227801B21
:1047F000910B8C179D0708F38EEF9FEFEECFCF92B2
:10480000DF92EF92FF920F931F93CF93DF936B0191
:104810008A017901B9010E945623E6010C0D1D1D84
:10482000C017D10761F424E92093BC00DF91CF9138
:104830001F910F91FF90EF90DF90CF90089597FD1B
:10484000F2CFB70189910E94D023EACFCF92DF92B5
:10485000EF92FF920F931F93CF93DF93C62F6A01BE
:104860007901B8010E94562397FD0CC0B8018C2F26
:104870000E94D023E601EC0CFD1CCE15DF0511F0E3
:1048800097FF0CC024E92093BC00DF91CF911F91CA
:104890000F91FF90EF90DF90CF900895B80189912C
:1048A0000E94D023EACF84E98093BC0008958EE172
:1048B0004A9B02C08150E1F74A9BFECF08955A9867
:1048C00080E28A95F1F75A9A0895FC013BE03A9507
:1048D000F1F798E020E080E031E040E14A95F1F71F
:1048E000880F4A9B02C08160232742E04A95F1F776
:1048F000000040E14A95F1F7915079F790E19A95DF
:10490000F1F799B132E03A95F1F7000040E14A95AC
:10491000F1F792FB992790F992272081920F9083CB
:104920000895EF92FF920F931F93CF93DF930F920F
:10493000CDB7DEB719828C017C01E60EF11C0E1595
:104940001F0561F481E09981911180E00F90DF9162
:10495000CF911F910F91FF90EF9008950E945724DF
:10496000CE0101960E946524F80181938F01E7CF63
:10497000529A5A9A089552985A9AEA9AE9E6F0E0B9
:1049800080818F7C808308956150770B91E001C016
:10499000990F6A95EAF720E031E0911108C02223CF
:1049A00091F05A9A80E28A95F1F75A980895492F22
:1049B000482339F05A9A232740E24A95F1F7969511
:1049C000ECCF5A98F9CF5A98EDCFFF920F931F93DF
:1049D000CF93DF93EC018C01060F111DC017D10797
:1049E00031F4DF91CF911F910F91FF900895F990CD
:1049F0000E945F2468E08F2D0E94C424EFCF1F9295
:104A00000F920FB60F921124EF92FF920F931F9304
:104A10002F933F934F935F936F937F938F939F93C6
:104A2000AF93BF93EF93FF93CF93DF930F92CDB7E5
:104A3000DEB719820E945724CE0101960E94652498
:104A4000A82FA695A695A695282F229525709A2F72
:104A50009570290F922F937026952695920F98277F
:104A600097708981982B09F075C0A43008F072C046
:104A700080E18A95F1F75A9A529AB2E0BA95F1F725
:104A800000C05A98EA2EF12CEAE0AE9FD001112422
:104A9000AC5FBE4F1896ED91FC9119973097B1F02D
:104AA0006091AE017091AF0116962D913C911797D0
:104AB000260F371F13968D919C911497680F791FBD
:104AC00015964C91159712968C9109958AE08E9DBA
:104AD000F0018F9DF00D1124EC5FFE4F6581662380
:104AE00051F02091AE013091AF0186819781820F04
:104AF000931F0E94E5240E945F24F0E1FA95F1F7EC
:104B00005A9852985A9A80E18A95F1F78AE08E9DD8
:104B100080018F9D100D11240C5F1E4FD80112963D
:104B20006C911297662371F12091AE013091AF0123
:104B300013968D919C91820F931F0E949124D8010E
:104B4000ED91FC91882311F088E001C082E0808320
:104B50000E9457240F90DF91CF91FF91EF91BF9169
:104B6000AF919F918F917F916F915F914F913F9105
:104B70002F911F910F91FF90EF900F900FBE0F900C
:104B80001F901895ED91FC91DFCF0F931F93CF935A
:104B9000DF93EC0104970CF0A9C08AE08C9FF00130
:104BA0008D9FF00D1124EC5FFE4F80819181892B48
:104BB00009F49CC0F894529A5A9885E08A95F1F7C6
:104BC00000008C2F869585709C2F9570890F982FEB
:104BD000937086958695890F8E0193E0000F111FC3
:104BE0009A95E1F7082B0E945F2400C068E0802FAF
:104BF0000E94C424A0E1AA95F1F752985A9A4A9BC0
:104C000027C087E090E04A9925C08AE08C9F800108
:104C10008D9F100D11240C5F1E4FF80165816623D6
:104C2000A1F12091AE013091AF0186819781820F71
:104C3000931F0E949124811128C0529A5A9AD80138
:104C4000ED91FC9182E08083789482E090E016C040
:104C500000C0D5CF0197B9F4529A5A9A8AE08C9F36
:104C6000F0018D9FF00D1124EC5FFE4F0190F0815B
:104C7000E02D81E08083789481E090E0DF91CF9116
:104C80001F910F91089500C0BECF0E945724B0E23B
:104C9000BA95F1F75A98529AE0E1EA95F1F78AE06D
:104CA0008C9FF0018D9FF00D1124EC5FFE4F62810F
:104CB000662351F02091AE013091AF018381948140
:104CC000820F931F0E94E5240E945F248AE08C9F3C
:104CD000F0018D9FF00D1124EC5FFE4F0190F081EB
:104CE000E02D1082789490E080E0C8CF84E090E0DE
:104CF000C5CF909397028093960208950E94121850
:104D0000811103C0809191020895E0919602F09183
:104D10009702309721F00190F081E02D099480E016
:104D200008950E947E260895E0919602F0919702E0
:104D3000309721F00280F381E02D099408952091AD
:104D40009402309195022817390771F090939502DB
:104D500080939402E0919602F0919702309721F0AF
:104D60000680F781E02D09940895209192023091F8
:104D700093022817390771F090939302809392025F
:104D8000E0919602F0919702309721F00084F1852E
:104D9000E02D099408959C012E5F3F4FAC01485FC0
:104DA0005F4F80E02417350709F40895F9019191C8
:104DB0009F019923B9F38F5FF5CF662349F0FC017A
:104DC000329608962191261729F0E817F907D1F7AE
:104DD00080E0089581E008959C01FC0132969FEFE8
:104DE00080E04191461751F09F3F19F4411101C0F5
:104DF000982F8F5F8630A9F79F3F09F40895290FF8
:104E0000311D97FD3A95F90162830895FC013296B0
:104E100008962191261303C0DF0111971C92E81711
:104E2000F907B9F708950C94EC260C94062702961E
:104E300026E0FC0111922A95E9F708951092C50425
:104E40001092C6041092C7041092C8040895CF921D
:104E5000DF92EF92FF926B017C010E941218811188
:104E60000EC00E94EE27C61AD70AE80AF90AC092B5
:104E7000C504D092C604E092C704F092C804FF9023
:104E8000EF90DF90CF9008950F931F930E94121818
:104E9000882321F01F910F910C94EE270E94EE279A
:104EA0000091C5041091C6042091C7043091C80434
:104EB000600F711F821F931F1F910F910895089516
:104EC000089508950C9461278091D104843049F1AC
:104ED0000E94622780E00E94050B1092980288E1F0
:104EE00090E020E40FB6F894A895809360000FBE80
:104EF0002093600083B7817F846083BF83B7816024
:104F000083BF7894889583B78E7F83BF0FB6F8945C
:104F1000A895809160008861809360001092600085
:104F20000FBE08950895CF930E9460270E948817AE
:104F30000E949227C0E08C2F0E945616811105C056
:104F4000CF5FCA30C1F7CF91089581E0FCCF0895BB
:104F50000C94A7270E94D60D0E947E260E94050B66
:104F60000C94A8271F921FB61F9211248F939F9312
:104F7000AF93BF9380919802811113C08091C904AF
:104F80009091CA04A091CB04B091CC044196A11D8C
:104F9000B11D8093C9049093CA04A093CB04B0932D
:104FA000CC04BF91AF919F918F911F901FBE1F9016
:104FB000189582E084BD93E095BD9AEF97BD8093EC
:104FC0006E0008952FB7F8948091C9049091CA0497
:104FD000A091CB04B091CC042FBF08952FB7F894C3
:104FE0006091C9047091CA048091CB049091CC0463
:104FF0002FBF08959C014FB7F8948091C9049091F8
:10500000CA04A091CB04B091CC044FBF821B930B78
:105010000895CF92DF92EF92FF922FB7F894C0904D
:10502000C904D090CA04E090CB04F090CC042FBF08
:10503000A7019601261B370B480B590BCA01B90172
:10504000FF90EF90DF90CF90089578941F921FB655
:105050001F9211248F939F93AF93BF938091C904A4
:105060009091CA04A091CB04B091CC040196A11DEB
:10507000B11D8093C9049093CA04A093CB04B0934C
:10508000CC04BF91AF919F918F911F901FBE1F9035
:10509000189587E797E7909301088093000888E1C7
:1050A0009AE00FB6F894A895809360000FBE909395
:1050B0006000FFCF9093B9018093B801089580916B
:1050C000A10208950895CF93DF93EC0181E08093CE
:1050D000E9008FEF9091E800815095FD06C095EDB5
:1050E0009A95F1F700008111F5CF8091E80085FFD6
:1050F00014C050E040E068E070E0CE010E948E2ACB
:105100008091E8008E778093E80088E0FE01A9E9AD
:10511000B2E001900D928A95E1F7DF91CF91089569
:1051200008950895CF93FC01603221F58091D10458
:10513000843001F5C091E900CF702091EC00922FEE
:10514000917020FD90E8C92B82E08093E900809166
:10515000E80080FF0CC050E040E060E270E0CF016A
:105160000E948E2A8091E8008E778093E800CF70AD
:10517000C093E900CF9108958091D004811109C0B6
:105180000E946D2C0E94CA2C8091E2008460809362
:10519000E20008951092D0040895089508950895A6
:1051A00042E061EC81E00E94E92B42E261EC82E0A6
:1051B0000E94E92B42E260EC83E00C94E92B8091A1
:1051C000D304833009F45FC030F48130C1F1823000
:1051D00009F49BC008958A3009F487C08B3009F424
:1051E0006DC0893009F04EC08091D204813209F03F
:1051F00049C08091D6049091D704892B09F042C010
:105200008091E800877F8093E8008091E80082FF2A
:1052100035C09091F3008091F200029729F48091BB
:10522000F1008B7F813021F48091F1008093A10205
:105230008091E8008B778093E8000C941D2C80917E
:10524000D204813AF9F48091E800877F8093E800E6
:105250008091D6049091D704892B61F468E089E9A4
:1052600092E070E00E942C2B8091E8008B77809375
:10527000E800089560E090E080E0F3CF8091D104F1
:105280008111C3CF08958091D204813AD9F78091DA
:10529000D6049091D704892BA9F78091E800877FE5
:1052A0008093E8008091E80080FFFCCF809133017B
:1052B0008093F1008091E8008E77BDCF8091D20479
:1052C000813201F78091D6049091D704892BD1F6D1
:1052D0008091E800877F8093E8000E941D2C8091D8
:1052E000D404809333010C94D60D8091D204813282
:1052F00049F68091E800877F8093E8000E941D2C8A
:105300008091D5048093A20208958091D204813ABD
:1053100009F0B8CF8091E800877F8093E800809102
:10532000E80080FFFCCF8091A202C2CF84B7877FC4
:1053300084BF0FB6F894A89580916000886180932F
:105340006000109260000FBE80E890E00FB6F89405
:1053500080936100909361000FBE0C94A7130E948C
:105360006D2C0E94CA2CE2EEF0E080818460808384
:1053700078940E94532F0E94B91389E291E00C9413
:105380007926CF93DF93CDB7DEB7A0970FB6F89409
:10539000DEBF0FBECDBF8091D104853031F4809146
:1053A000D104853091F10E94AA270E94C8138091F0
:1053B000D104843009F583E08093E9008091E8000E
:1053C00082FF1AC08091E80090E085FF09C050E09C
:1053D00040E060E270E0CE0101960E94DD2A91E09B
:1053E0008091E8008B778093E800992329F060E2B0
:1053F000CE0101960E94A41BA0960FB6F894DEBFC2
:105400000FBECDBFDF91CF9108950E946427809198
:10541000CF04882321F20E949327882309F4BFCF69
:105420000E94782A0E94D60DBACF0C94172AE92F31
:10543000FF27E330F105E9F060F4E130F10509F40C
:1054400048C0329709F44AC0F0E0E0E090E080E024
:1054500025C0E132F10571F1E232F105A9F76115DC
:10546000710509F440C08AED9EE061307105B1F02C
:10547000EBCF992781309105B1F0009749F0029761
:1054800019F7E0E6FEE0E491F0E080E69EE006C079
:10549000E2E8FEE0E491F0E082E89EE0DA018D933C
:1054A0009C93CF010895E0E7FEE0E491F0E080E70F
:1054B0009EE0F4CFE9E0F0E088E99EE06115710537
:1054C00069F3E9E0F0E081EB9EE06130710531F3D2
:1054D000BBCFE2E1F0E088EC9EE0E0CFE2E4F0E078
:1054E00086E89EE0DBCFE0E4F0E08CEF9EE0D6CFF4
:1054F00080E189BD82E189BD09B400FEFDCF8091C4
:10550000D8008F7D8093D8008091E00082608093E6
:10551000E0008091E00081FDFCCF0895AF92BF9242
:10552000CF92DF92FF920F931F93CF93DF936C0183
:10553000EB018A010E943C2CF82E811123C0011539
:10554000110539F0F80180819181C81BD90BC80E73
:10555000D91EB12CA12C2097A9F08091E80085FDDF
:1055600022C08091E8008E778093E8000115110534
:10557000A1F0F80180819181A80EB91EB182A082AC
:1055800085E0F82E8F2DDF91CF911F910F91FF9025
:10559000DF90CF90BF90AF9008950E943C2C88235D
:1055A000D1F2F82EEFCFF60181916F018093F100D7
:1055B0002197FFEFAF1ABF0ACECFAF92BF92CF9223
:1055C000DF92FF920F931F93CF93DF936C01EB0158
:1055D0008A010E943C2CF82E811123C0011511056F
:1055E00039F0F80180819181C81BD90BC80ED91EF2
:1055F000B12CA12C2097A9F08091E80085FD22C054
:105600008091E8008B778093E80001151105A1F0E7
:10561000F80180819181A80EB91EB182A08285E037
:10562000F82E8F2DDF91CF911F910F91FF90DF907A
:10563000CF90BF90AF9008950E943C2C8823D1F268
:10564000F82EEFCF8091F100F60181936F01219741
:10565000FFEFAF1ABF0ACECFFC018091D804909122
:10566000D90486179707A0F06115710529F4909168
:10567000E8009E779093E80090E06115710551F481
:10568000911108C08091E80082FF34C080E0089545
:10569000BC01F2CF8091D1048823C1F18530C1F1E2
:1056A0008091E80083FD30C08091E80082FDEACF60
:1056B0008091E80080FFE1CF8091F3002091F2001B
:1056C000382F6115710519F02830310558F091E037
:1056D0002830310509F090E02091E8002E772093E2
:1056E000E800CBCF81918093F100615071092F5F69
:1056F0003F4FE7CF8091D104882341F0853041F0BE
:105700008091E80083FFBECF81E0089582E0089594
:1057100083E00895FC018091D8049091D904861704
:105720009707A0F06115710529F48091E8008E7744
:105730008093E80090E06115710551F4911108C063
:105740008091E80082FF35C080E00895BC01F2CF6F
:105750008091D1048823C9F18530C9F18091E80096
:1057600083FD31C08091E80082FDEACF8091E8009E
:1057700080FFE1CF8091F3002091F200382F611576
:10578000710519F02830310558F091E028303105C5
:1057900009F090E08091E8008E778093E800CBCF0D
:1057A00084918093F1003196615071092F5F3F4FD2
:1057B000E6CF8091D104882341F0853041F080917B
:1057C000E80083FFBDCF81E0089582E0089583E083
:1057D0000895982F973028F08F708093E90081E02A
:1057E00008959093E900242F762F50E0981731F018
:1057F0007091EC002091ED005091F00021FD02C06D
:105800009F5FE8CF3091EB003E7F3093EB0030910B
:10581000ED003D7F3093ED003091EB00316030932F
:10582000EB007093EC002093ED005093F00020917A
:10583000EE0027FDE5CF80E008958091D20487FF38
:1058400013C08091E80082FF06C08091E8008B774A
:105850008093E80004C08091D1048111F2CF0895B3
:105860008091D1048823D9F38091E80080FFF8CF9C
:105870008091E8008E77ECCF2091E4003091E50034
:1058800095E6A9012091EC00822F817020FF06C0CF
:105890008091E80080FF06C080E008952091E80034
:1058A00022FD1AC08091D104882389F0853089F0C7
:1058B0008091EB0085FD0FC02091E4003091E50060
:1058C00042175307F9F29150E1F684E0089582E01F
:1058D000089583E0089581E008950E94DB2C0E94E2
:1058E000E32CE0EEF0E0808181608083E8EDF0E081
:1058F00080818F77808319BCA7EDB0E08C918E7F7B
:105900008C9380818F7E80831092D00408950F93B2
:105910001F93CF93DF930E94DB2C0E94E32CC8EDF2
:10592000D0E088818F7788838881806888838881A8
:105930008F7D888319BC1092D1041092CD041092EF
:10594000CF041092CE0400EE10E0F80180818B7F2E
:10595000808388818160888342E060E080E00E94EB
:10596000E92BE1EEF0E080818E7F8083E2EEF0E0D3
:10597000808181608083808188608083F80180815C
:105980008E7F8083888180618883DF91CF911F9192
:105990000F910895E8EDF0E080818F7E8083E7ED40
:1059A000F0E080818160808384E082BF81E0809329
:1059B000D0040C94872CE8EDF0E080818E7F80830A
:1059C0001092E20008951092DA001092E10008951A
:1059D0001F920F920FB60F9211242F933F934F9364
:1059E0005F936F937F938F939F93AF93BF93EF9347
:1059F000FF938091E10082FF0BC08091E20082FF63
:105A000007C08091E1008B7F8093E1000E94522FBC
:105A10008091DA0080FF19C08091D80080FF15C006
:105A20008091DA008E7F8093DA008091D90080FF28
:105A300096C080E189BD82E189BD09B400FEFDCF39
:105A400081E08093D1040E94BC288091E10080FF16
:105A500019C08091E20080FF15C08091E2008E7F26
:105A60008093E2008091E20080618093E200809167
:105A7000D80080628093D80019BC85E08093D1045F
:105A80000E94CE288091E10084FF2BC08091E2002B
:105A900084FF27C080E189BD82E189BD89B5982F47
:105AA000917080FFFBCF8091D8008F7D8093D800CC
:105AB0008091E1008F7E8093E1008091E2008F7EF3
:105AC0008093E2008091E20081608093E200809107
:105AD000CD04882309F449C084E08093D1040E9456
